{
  "_format": "hh-sol-artifact-1",
  "contractName": "DecentralizedWebHost",
  "sourceName": "contracts/DecentralizedWebHost.sol",
  "abi": [
    {
      "anonymous": false,
      "inputs": [
        {
          "indexed": true,
          "internalType": "uint256",
          "name": "deploymentId",
          "type": "uint256"
        },
        {
          "indexed": true,
          "internalType": "address",
          "name": "owner",
          "type": "address"
        },
        {
          "indexed": false,
          "internalType": "string",
          "name": "contentHash",
          "type": "string"
        },
        {
          "indexed": false,
          "internalType": "uint256",
          "name": "timestamp",
          "type": "uint256"
        },
        {
          "indexed": false,
          "internalType": "uint256",
          "name": "version",
          "type": "uint256"
        }
      ],
      "name": "WebsiteDeployed",
      "type": "event"
    },
    {
      "inputs": [
        {
          "internalType": "string",
          "name": "_contentHash",
          "type": "string"
        },
        {
          "internalType": "string",
          "name": "_projectName",
          "type": "string"
        },
        {
          "internalType": "string",
          "name": "_description",
          "type": "string"
        }
      ],
      "name": "deployWebsite",
      "outputs": [
        {
          "internalType": "uint256",
          "name": "",
          "type": "uint256"
        }
      ],
      "stateMutability": "nonpayable",
      "type": "function"
    },
    {
      "inputs": [],
      "name": "deploymentCounter",
      "outputs": [
        {
          "internalType": "uint256",
          "name": "",
          "type": "uint256"
        }
      ],
      "stateMutability": "view",
      "type": "function"
    },
    {
      "inputs": [
        {
          "internalType": "uint256",
          "name": "",
          "type": "uint256"
        }
      ],
      "name": "deployments",
      "outputs": [
        {
          "internalType": "address",
          "name": "owner",
          "type": "address"
        },
        {
          "internalType": "string",
          "name": "contentHash",
          "type": "string"
        },
        {
          "internalType": "uint256",
          "name": "timestamp",
          "type": "uint256"
        },
        {
          "internalType": "uint256",
          "name": "version",
          "type": "uint256"
        },
        {
          "internalType": "string",
          "name": "projectName",
          "type": "string"
        },
        {
          "internalType": "string",
          "name": "description",
          "type": "string"
        }
      ],
      "stateMutability": "view",
      "type": "function"
    },
    {
      "inputs": [
        {
          "internalType": "uint256",
          "name": "_deploymentId",
          "type": "uint256"
        }
      ],
      "name": "getDeployment",
      "outputs": [
        {
          "components": [
            {
              "internalType": "address",
              "name": "owner",
              "type": "address"
            },
            {
              "internalType": "string",
              "name": "contentHash",
              "type": "string"
            },
            {
              "internalType": "uint256",
              "name": "timestamp",
              "type": "uint256"
            },
            {
              "internalType": "uint256",
              "name": "version",
              "type": "uint256"
            },
            {
              "internalType": "string",
              "name": "projectName",
              "type": "string"
            },
            {
              "internalType": "string",
              "name": "description",
              "type": "string"
            }
          ],
          "internalType": "struct DecentralizedWebHost.WebsiteDeployment",
          "name": "",
          "type": "tuple"
        }
      ],
      "stateMutability": "view",
      "type": "function"
    },
    {
      "inputs": [
        {
          "internalType": "address",
          "name": "_owner",
          "type": "address"
        }
      ],
      "name": "getDeploymentsByOwner",
      "outputs": [
        {
          "internalType": "uint256[]",
          "name": "",
          "type": "uint256[]"
        }
      ],
      "stateMutability": "view",
      "type": "function"
    },
    {
      "inputs": [
        {
          "internalType": "address",
          "name": "_owner",
          "type": "address"
        }
      ],
      "name": "getOwnerDeploymentCount",
      "outputs": [
        {
          "internalType": "uint256",
          "name": "",
          "type": "uint256"
        }
      ],
      "stateMutability": "view",
      "type": "function"
    },
    {
      "inputs": [
        {
          "internalType": "address",
          "name": "_owner",
          "type": "address"
        }
      ],
      "name": "getOwnerLatestVersion",
      "outputs": [
        {
          "internalType": "uint256",
          "name": "",
          "type": "uint256"
        }
      ],
      "stateMutability": "view",
      "type": "function"
    },
    {
      "inputs": [],
      "name": "getTotalDeployments",
      "outputs": [
        {
          "internalType": "uint256",
          "name": "",
          "type": "uint256"
        }
      ],
      "stateMutability": "view",
      "type": "function"
    },
    {
      "inputs": [
        {
          "internalType": "address",
          "name": "",
          "type": "address"
        },
        {
          "internalType": "uint256",
          "name": "",
          "type": "uint256"
        }
      ],
      "name": "ownerToDeployments",
      "outputs": [
        {
          "internalType": "uint256",
          "name": "",
          "type": "uint256"
        }
      ],
      "stateMutability": "view",
      "type": "function"
    },
    {
      "inputs": [
        {
          "internalType": "address",
          "name": "",
          "type": "address"
        }
      ],
      "name": "ownerVersionCounter",
      "outputs": [
        {
          "internalType": "uint256",
          "name": "",
          "type": "uint256"
        }
      ],
      "stateMutability": "view",
      "type": "function"
    }
  ],
  "bytecode": "0x608060405234801561001057600080fd5b50610e9b806100206000396000f3fe608060405234801561001057600080fd5b506004361061009e5760003560e01c806366b828741161006657806366b828741461013f57806378bea2e4146101525780638340581d14610172578063d7f034b51461019b578063e83b86e1146101bb57600080fd5b806306609bbe146100a3578063246c751f146100d157806325803096146100e357806325da16981461010c5780633fd3179e1461012c575b600080fd5b6100b66100b13660046109b0565b6101c4565b6040516100c896959493929190610a0f565b60405180910390f35b6000545b6040519081526020016100c8565b6100d56100f1366004610a8e565b6001600160a01b031660009081526003602052604090205490565b61011f61011a3660046109b0565b61039c565b6040516100c89190610ab0565b6100d561013a366004610bda565b610634565b6100d561014d366004610c62565b610913565b610165610160366004610a8e565b610944565b6040516100c89190610c8c565b6100d5610180366004610a8e565b6001600160a01b031660009081526002602052604090205490565b6100d56101a9366004610a8e565b60036020526000908152604090205481565b6100d560005481565b6001602081905260009182526040909120805491810180546001600160a01b03909316926101f190610cd0565b80601f016020809104026020016040519081016040528092919081815260200182805461021d90610cd0565b801561026a5780601f1061023f5761010080835404028352916020019161026a565b820191906000526020600020905b81548152906001019060200180831161024d57829003601f168201915b50505050509080600201549080600301549080600401805461028b90610cd0565b80601f01602080910402602001604051908101604052809291908181526020018280546102b790610cd0565b80156103045780601f106102d957610100808354040283529160200191610304565b820191906000526020600020905b8154815290600101906020018083116102e757829003601f168201915b50505050509080600501805461031990610cd0565b80601f016020809104026020016040519081016040528092919081815260200182805461034590610cd0565b80156103925780601f1061036757610100808354040283529160200191610392565b820191906000526020600020905b81548152906001019060200180831161037557829003601f168201915b5050505050905086565b6103de6040518060c0016040528060006001600160a01b0316815260200160608152602001600081526020016000815260200160608152602001606081525090565b6000821180156103f057506000548211155b6104395760405162461bcd60e51b8152602060048201526015602482015274125b9d985b1a590819195c1b1bde5b595b9d081251605a1b60448201526064015b60405180910390fd5b600082815260016020818152604092839020835160c0810190945280546001600160a01b0316845291820180549184019161047390610cd0565b80601f016020809104026020016040519081016040528092919081815260200182805461049f90610cd0565b80156104ec5780601f106104c1576101008083540402835291602001916104ec565b820191906000526020600020905b8154815290600101906020018083116104cf57829003601f168201915b50505050508152602001600282015481526020016003820154815260200160048201805461051990610cd0565b80601f016020809104026020016040519081016040528092919081815260200182805461054590610cd0565b80156105925780601f1061056757610100808354040283529160200191610592565b820191906000526020600020905b81548152906001019060200180831161057557829003601f168201915b505050505081526020016005820180546105ab90610cd0565b80601f01602080910402602001604051908101604052809291908181526020018280546105d790610cd0565b80156106245780601f106105f957610100808354040283529160200191610624565b820191906000526020600020905b81548152906001019060200180831161060757829003601f168201915b5050505050815250509050919050565b6000808451116106865760405162461bcd60e51b815260206004820152601c60248201527f436f6e74656e7420686173682063616e6e6f7420626520656d707479000000006044820152606401610430565b60008351116106d75760405162461bcd60e51b815260206004820152601c60248201527f50726f6a656374206e616d652063616e6e6f7420626520656d707479000000006044820152606401610430565b6064845111156107215760405162461bcd60e51b8152602060048201526015602482015274436f6e74656e74206861736820746f6f206c6f6e6760581b6044820152606401610430565b60648351111561076b5760405162461bcd60e51b815260206004820152601560248201527450726f6a656374206e616d6520746f6f206c6f6e6760581b6044820152606401610430565b6101f4825111156107b55760405162461bcd60e51b81526020600482015260146024820152734465736372697074696f6e20746f6f206c6f6e6760601b6044820152606401610430565b6000805490806107c483610d0a565b90915550503360009081526003602052604081208054916107e483610d0a565b9091555050600080543380835260036020908152604080852054815160c0810183529384528383018a8152428584015260608501829052608085018a905260a0850189905285875260019384905291909520835181546001600160a01b0319166001600160a01b03909116178155905193949390918201906108669082610d80565b5060408201516002820155606082015160038201556080820151600482019061088f9082610d80565b5060a082015160058201906108a49082610d80565b5050336000818152600260209081526040808320805460018101825590845291909220018590555190915083907f63762615874abd47391310aa17740c5f90758ac1068fa6eef709e99d53f6214190610902908a9042908790610e40565b60405180910390a350949350505050565b6002602052816000526040600020818154811061092f57600080fd5b90600052602060002001600091509150505481565b6001600160a01b0381166000908152600260209081526040918290208054835181840281018401909452808452606093928301828280156109a457602002820191906000526020600020905b815481526020019060010190808311610990575b50505050509050919050565b6000602082840312156109c257600080fd5b5035919050565b6000815180845260005b818110156109ef576020818501810151868301820152016109d3565b506000602082860101526020601f19601f83011685010191505092915050565b6001600160a01b038716815260c060208201819052600090610a33908301886109c9565b8660408401528560608401528281036080840152610a5181866109c9565b905082810360a0840152610a6581856109c9565b9998505050505050505050565b80356001600160a01b0381168114610a8957600080fd5b919050565b600060208284031215610aa057600080fd5b610aa982610a72565b9392505050565b602080825282516001600160a01b03168282015282015160c06040830152600090610ade60e08401826109c9565b905060408401516060840152606084015160808401526080840151601f19808584030160a0860152610b1083836109c9565b925060a08601519150808584030160c086015250610b2e82826109c9565b95945050505050565b634e487b7160e01b600052604160045260246000fd5b600082601f830112610b5e57600080fd5b813567ffffffffffffffff80821115610b7957610b79610b37565b604051601f8301601f19908116603f01168101908282118183101715610ba157610ba1610b37565b81604052838152866020858801011115610bba57600080fd5b836020870160208301376000602085830101528094505050505092915050565b600080600060608486031215610bef57600080fd5b833567ffffffffffffffff80821115610c0757600080fd5b610c1387838801610b4d565b94506020860135915080821115610c2957600080fd5b610c3587838801610b4d565b93506040860135915080821115610c4b57600080fd5b50610c5886828701610b4d565b9150509250925092565b60008060408385031215610c7557600080fd5b610c7e83610a72565b946020939093013593505050565b6020808252825182820181905260009190848201906040850190845b81811015610cc457835183529284019291840191600101610ca8565b50909695505050505050565b600181811c90821680610ce457607f821691505b602082108103610d0457634e487b7160e01b600052602260045260246000fd5b50919050565b600060018201610d2a57634e487b7160e01b600052601160045260246000fd5b5060010190565b601f821115610d7b57600081815260208120601f850160051c81016020861015610d585750805b601f850160051c820191505b81811015610d7757828155600101610d64565b5050505b505050565b815167ffffffffffffffff811115610d9a57610d9a610b37565b610dae81610da88454610cd0565b84610d31565b602080601f831160018114610de35760008415610dcb5750858301515b600019600386901b1c1916600185901b178555610d77565b600085815260208120601f198616915b82811015610e1257888601518255948401946001909101908401610df3565b5085821015610e305787850151600019600388901b60f8161c191681555b5050505050600190811b01905550565b606081526000610e5360608301866109c9565b6020830194909452506040015291905056fea26469706673582212200fbb930c0bf74296c6fd099036d17769bba3ad2de041ac3711397203ebbcf31564736f6c63430008140033",
  "linkReferences": {},
  "deployedLinkReferences": {}
}